:100000000080202045060000410600004106000057
:1000100000000000000000000000000000000000E0
:100020000000000000000000000000004106000089
:10003000000000000000000041060000CD070000A5
:10004000410600009D080000410600006118000004
:100050004106000041060000410600004106000084
:100060000000000041060000410600000000000002
:1000700000000000D5070000E1130000F9060000B1
:100080002D1D000041060000410600004106000051
:1000900041060000410600000000000000000000D2
:1000A00041060000410600000000000000000000C2
:1000B000410600000000000041060000410600006B
:1000C000402292029A1A92467047C046174B002B64
:1000D00000D1134B9D46FFF7F3FF00218B460F46DF
:1000E0001348144A121A07F0C3FA0E4B002B00D023
:1000F00098470D4B002B00D09847002000210400AA
:100100000D000D48002802D00C4800E000BF07F0A9
:100110008BFB2000290001F0FBFC05F081FEC046AE
:100120000000080000000000000000000080202007
:10013000480220206008202000000000000000008D
:10014000002243088B4274D303098B425FD3030A16
:100150008B4244D3030B8B4228D3030C8B420DD329
:10016000FF22090212BA030C8B4202D312120902B7
:1001700065D0030B8B4219D300E0090AC30B8B42F5
:1001800001D3CB03C01A5241830B8B4201D38B03A3
:10019000C01A5241430B8B4201D34B03C01A524148
:1001A000030B8B4201D30B03C01A5241C30A8B428B
:1001B00001D3CB02C01A5241830A8B4201D38B0276
:1001C000C01A5241430A8B4201D34B02C01A52411A
:1001D000030A8B4201D30B02C01A5241CDD2C3098C
:1001E0008B4201D3CB01C01A524183098B4201D308
:1001F0008B01C01A524143098B4201D34B01C01AF3
:10020000524103098B4201D30B01C01A5241C3086A
:100210008B4201D3CB00C01A524183088B4201D3D9
:100220008B00C01A524143088B4201D34B00C01AC5
:100230005241411A00D20146524110467047FFE731
:1002400001B5002000F0F0F802BDC0460029F7D04B
:1002500076E7704703460B437FD4002243088B4266
:1002600074D303098B425FD3030A8B4244D3030B3D
:100270008B4228D3030C8B420DD3FF22090212BA02
:10028000030C8B4202D31212090265D0030B8B427E
:1002900019D300E0090AC30B8B4201D3CB03C01A68
:1002A0005241830B8B4201D38B03C01A5241430B43
:1002B0008B4201D34B03C01A5241030B8B4201D333
:1002C0000B03C01A5241C30A8B4201D3CB02C01A9E
:1002D0005241830A8B4201D38B02C01A5241430A16
:1002E0008B4201D34B02C01A5241030A8B4201D305
:1002F0000B02C01A5241CDD2C3098B4201D3CB01AC
:10030000C01A524183098B4201D38B01C01A52415A
:1003100043098B4201D34B01C01A524103098B425E
:1003200001D30B01C01A5241C3088B4201D3CB0049
:10033000C01A524183088B4201D38B00C01A52412C
:1003400043088B4201D34B00C01A5241411A00D2DC
:1003500001465241104670475DE0CA0F00D0494245
:10036000031000D34042534000229C4603098B42B5
:100370002DD3030A8B4212D3FC22890112BA030A3D
:100380008B420CD3890192118B4208D389019211BF
:100390008B4204D389013AD0921100E08909C30944
:1003A0008B4201D3CB01C01A524183098B4201D346
:1003B0008B01C01A524143098B4201D34B01C01A31
:1003C000524103098B4201D30B01C01A5241C308A9
:1003D0008B4201D3CB00C01A524183088B4201D318
:1003E0008B00C01A5241D9D243088B4201D34B0033
:1003F000C01A5241411A00D20146634652415B1075
:10040000104601D34042002B00D549427047634655
:100410005B1000D3404201B5002000F005F802BD9A
:100420000029F8D016E770477047C0468446100090
:1004300062468C461900634600E0C0461FB504F0D2
:1004400077FC002801D40021C8421FBD10B504F07C
:10045000BBFB4042013010BD10B504F069FC002820
:1004600001DB002010BD012010BDC04610B504F016
:100470005FFC002801DD002010BD012010BDC0463A
:1004800010B504F0EBFB002801DC002010BD0120BA
:1004900010BDC04610B504F0E1FB002801DA0020D1
:1004A00010BD012010BDC046844608006146FFE72C
:1004B0001FB503F011F8002801D40021C8421FBD68
:1004C00010B502F08DFF4042013010BD10B503F0B1
:1004D00003F8002801DB002010BD012010BDC0463C
:1004E00010B502F0F9FF002801DD002010BD012049
:1004F00010BDC04610B502F09FFF002801DC0020AF
:1005000010BD012010BDC04610B502F095FF0028B7
:1005100001DA002010BD012010BDC0461C210123BE
:100520001B04984201D3000C10391B0A984201D3D6
:10053000000A08391B09984201D30009043902A2B4
:10054000105C40187047C04604030202010101011B
:10055000000000000000000002780B78002A03D0A1
:10056000013001319A42F7D0D01A70470023C25CA3
:100570000133002AFBD1581E7047000002B47146B7
:1005800049084900095C49008E4402BC7047C046D6
:1005900003B47146490840004900095E49008E4491
:1005A00003BC7047000000000448054B10B58342AF
:1005B00003D0044B002B00D0984710BD48022020E8
:1005C000480220200000000006480749091A8B1045
:1005D000C90FC91810B5491003D0044B002B00D027
:1005E000984710BD4802202048022020000000004B
:1005F00010B5074C2378002B09D1FFF7D5FF054B29
:10060000002B02D0044800E000BF0123237010BD7E
:100610004802202000000000E0AD0000054B10B5AE
:10062000002B03D00449054800E000BFFFF7CCFFD2
:1006300010BDC046000000004C022020E0AD0000CC
:10064000FEE7000010B51C4B1C4A93420DD21C4B18
:10065000194A9A1A9208013292000023164C19483E
:10066000C158E15004339342FAD1174B174A9342D1
:100670000DD2174B144A9A1A9208013292000023A5
:10068000114C1448C158E15004339342FAD1124B33
:10069000124A934209D2124AD21A920801329200A7
:1006A000D218002102C39342FCD107F0BDF801F03B
:1006B0002FFAFFF7C5FF10BD0000202048022020C0
:1006C00047022020F0AD0000000020200000202084
:1006D000FFFF1F2068A6000048022020600820209D
:1006E0005F082020034B80221202C02149005A508B
:1006F0001A60704700E100E0214A81235B01D25873
:10070000FF2313400B2B00D070471D4A1D4BD358BD
:10071000DBB21D4A1278002A0CD15B2BF4D11B4BA3
:100720001B78002BF0D1184B01321A70184B0022A5
:100730001A70E9E7012AE7D15D2B09D0144A127833
:10074000C62A12D81249501C087012498B54DBE794
:100750000D4B00221A700E4B1B780E49CA540E4ADC
:1007600013700A4B01221A70CEE7074A0023137058
:10077000074A1370084A1370064A1370C4E7C0464C
:100780000080104024110000650220206702202014
:100790006402202068022020660220200FB400207E
:1007A00004B0704710B543011B1A9B001818830052
:1007B000C018C00109F094FC10BD0000024A136883
:1007C000013313607047C0463003202010B5FFF797
:1007D000F5FF10BD70470000044A95235B0180219E
:1007E0000901D15080218905D150704700000A408D
:1007F000024A034B80218905D150704700000A400E
:1008000090120000034A95235B0180218905D15095
:100810007047C04600000A40002802D0024B5868CA
:100820007047024B5868FBE7340320204003202028
:1008300072B6054A0023136053609360034A136045
:100840005360936062B67047400320203403202039
:1008500010B5044B0222C02149005A501A60FFF71C
:10086000E7FF10BD00E100E010B572B6094A136859
:100870009C46094B1868414264465460596091682F
:10088000614491609968091A9960002111601960AA
:1008900062B610BD4003202034032020274A284B95
:1008A000D3589A0721D525499C2252018A58D2074C
:1008B00016D424490A68013A0A60DA052CD51F4A81
:1008C0009C235B01D3589B0521D41F4A1368013B2D
:1008D00013601A491D4A88581D4B03438B507047BB
:1008E00018490A6801320A60E7E7DA07E5D51349D3
:1008F0009C2252018A58920704D412490A68013294
:100900000A60DAE70F490A68013A0A60D5E70E4A39
:10091000136801331360DCE79B05DAD5074A9C2393
:100920005B01D358DB0504D4074A13680133136015
:10093000CFE7054A1368013B1360CAE700000A408D
:10094000381000004003202034032020481000000D
:100950000303000010B50F4C9C235B01E0580E4AC6
:10096000D158E258E358000D0124890B2140490079
:1009700020400843D20C22409200042188431043B7
:10098000082290435B0C23401B010832904318431C
:1009900010BDC04600200A4000000A4010B501000A
:1009A0000A4A95235B018020C001D050084809F015
:1009B000DBFB07480749102243581A42FCD1034A7F
:1009C000054B8021C901D15010BDC04600200A400E
:1009D00000A04640101100009012000070B5054CB8
:1009E00080252D0195235B01E550FFF7D7FF024BD2
:1009F000E55070BD00200A4090120000F8B50600D6
:100A0000170023318DB223339CB22A20FFF7E6FF73
:100A1000300AFFF7C3FFF0B2FFF7C0FF380AFFF755
:100A2000BDFFF8B2FFF7BAFF2B20FFF7D7FF280A68
:100A3000FFF7B4FFE8B2FFF7B1FF200AFFF7AEFF00
:100A4000E0B2FFF7ABFF2C20FFF7C8FFF8BD0000B6
:100A500070B5664C8026F60095235B01E650642055
:100A6000FFF7A0FE624D66516420FFF79BFE8023D6
:100A7000DB0463516420FFF795FE1120FFF7AEFF02
:100A80007820FFF78FFE3620FFF7A8FF7020FFF7D2
:100A900085FF3A20FFF7A2FF0520FFF77FFFB22076
:100AA000FFF79CFF0C20FFF779FF0C20FFF776FF84
:100AB0000020FFF773FF3320FFF770FF3320FFF7AD
:100AC0006DFFB720FFF78AFF3520FFF767FFBB20D8
:100AD000FFF784FF3220FFF761FFC220FFF77EFFA0
:100AE0000120FFF75BFFC320FFF778FF1520FFF71A
:100AF00055FFC420FFF772FF2020FFF74FFFC620ED
:100B0000FFF76CFF0F20FFF749FFD020FFF766FFCC
:100B1000A420FFF743FFA120FFF740FFE020FFF7ED
:100B20005DFFD020FFF73AFF0820FFF737FF0E20C8
:100B3000FFF734FF0920FFF731FF0920FFF72EFFF1
:100B40000520FFF72BFF3120FFF728FF3320FFF7A9
:100B500025FF4820FFF722FF1720FFF71FFF142073
:100B6000FFF71CFF1520FFF719FF3120FFF716FFD5
:100B70003420FFF713FFE120FFF730FFD020FFF70D
:100B80000DFF0820FFF70AFF0E20FFF707FF0920DF
:100B9000FFF704FF0920FFF701FF1520FFF7FEFE16
:100BA0003120FFF7FBFE3320FFF7F8FE4820FFF768
:100BB000F5FE1720FFF7F2FE1420FFF7EFFE1520D9
:100BC000FFF7ECFE3120FFF7E9FE3420FFF7E6FEE9
:100BD0002120FFF703FF2920FFF700FF4022A92370
:100BE000FF3200210020FFF709FF70BD00200A40FE
:100BF0009012000070B50600002A0AD00C00891877
:100C0000CDB22178300009F021FC0134E3B29D42DD
:100C1000F7D170BD70B584B006000D006C4610228F
:100C20000021684606F024FD26700A2363706333B2
:100C3000A370023BE370042269462800FFF7DAFF45
:100C400004B070BDF0B585B006000C0017006D460D
:100C500010220021684606F00BFD2E70102C3ED8A5
:100C6000A300244AD3589F461F226A70022437E00B
:100C700020226A70022433E021226A7030E02422AC
:100C80006A7002242CE027226A70022428E03122B4
:100C90006A70022424E033226A70022420E03522A4
:100CA0006A7002241CE036226A70022418E037229F
:100CB0006A70022414E03A226A70022410E03B2297
:100CC0006A7002240CE042226A702A32AA7003245D
:100CD00006E043226A703732AA70032400E0012440
:100CE00069466B230B550134E2B23800FFF782FFEF
:100CF00005B0F0BD68A60000F0B5C64600B584B0EA
:100D000080460F0016001D006C4610220021684628
:100D100006F0AEFC43462370F3236370483BA37098
:100D2000E7702671403B6371062269462800FFF791
:100D300061FF04B080BCB846F0BDF0B5D6464F4662
:100D40004646C0B586B082468946160098460EAB28
:100D500020CB1A78019210AB1F7802AC1022002130
:100D6000200006F085FC50462070FD236370494644
:100D7000A170330AE3702671434663712B0EA37191
:100D80002B0CE3712B0A23726572019AA272E7722F
:100D90006B2323730D2221001198FFF72BFF06B060
:100DA000E0BCBA46B146A846F0BD000010B5084AFE
:100DB0000D210120FFF746FF064B1B88064A934290
:100DC00005D001339BB2034A1380044A538410BDFB
:100DD0000020104060032020FFFF0000700320204F
:100DE00010B5184B5B7A002B2BD1174A174BD358F1
:100DF0005B0707D41300164C144804211A591A58DB
:100E00001142FBD0104A8023DB0012495350124993
:100E1000505803435350114B8022D201C021490046
:100E20005A501A60074B01225A720D490A70242148
:100E30005A540C4A002111805984FFF7E3FCFFF754
:100E4000B5FF10BD700320200020104008110000E5
:100E500024110000481000002810000000E100E00C
:100E6000620320206003202070B584B002001C4B78
:100E70005B7A002B2DD01B4B1B780026022B29D12F
:100E800000282AD0164B1B681C00DB171D00C11759
:100E900024184D41802000060021001969410029D5
:100EA00018D1D10F104B1B889C46104B1878D317C4
:100EB000D2185A400E4B03930023029301930092E1
:100EC000030062460120FFF738FF054B1C60013626
:100ED00000E00026300004B070BD0026FAE7C046EE
:100EE000700320206203202006002020050020201F
:100EF0000020104010B50E4902F03EFB0D4902F0F3
:100F000059F9041C0021FFF7FFFA002809D1FC2140
:100F10008905201C02F07AFC02F0C2FEFFF7A4FF54
:100F200010BDFC218905201C01F018FFF4E7C04624
:100F3000000048450000404130B585B00400134B27
:100F40005B7A002B1ED0124B1B780020022B1AD18B
:100F50000E4B9B7A002B16D0E10F0E4B1A880E4BCE
:100F60001B78E517601968400C4D03950025029524
:100F70000135019500900120FFF7DFFE034B1C6057
:100F8000012000E0002005B030BDC04670032020E5
:100F900062032020060020200500202000201040B1
:100FA00010B50020FFF7C8FF054B00221A70054B53
:100FB00025215A54044A213911702622995410BD12
:100FC00055032020700320205403202010B5084B27
:100FD0005B7A0020002B00D110BD06490130FFF7DD
:100FE00019FE034B00221A6001329A720120F3E7C6
:100FF000700320200020104010B5044B9B7A002085
:10100000002B00D110BDFFF797FFFBE770032020F6
:10101000024A1368013313607047C046580320200A
:1010200010B5B44B1868B44B1B78012B2AD0B24BC7
:101030001B78032B4BD0B04B1B78022B32D1AF4B1C
:101040001B78002B00D1CFE0AD4A00231370AD4ACE
:101050001370AD4A1370A74A1360AC4B1B78002B7A
:1010600053D0AA4B00241C70FFF7C6FFA34B2100EE
:101070001C70A74B25229C54A64A053111702622CC
:1010800099540FE0A24B5B69002B0BD0A04B1B7A4D
:10109000DB0708D5984B02221A709D4B24215A5425
:1010A000FFF7A6FB10BD9A4C62699B4B1A609B4BE5
:1010B000002201210120FFF71FFE994B00221A8018
:1010C00062848D4B03321A702423E254EAE7904B7A
:1010D0005A69914B1B689A42E4D98D4B1B7ADB0706
:1010E0000AD48F4B1B88132BDCD9834B06221A7032
:1010F000874B24215A54D5E77F4B02221A70844B28
:1011000024215A54FFF774FBCCE77C4B1B78DAB2EE
:10111000032B4ED0032A1AD8012A2CD0022AC1D17F
:10112000804B1B68804A12689B1ABBD47F48FFF72C
:1011300003FF00283AD07B4B1A687B4B1E321A60A3
:101140006E4B03221A70724B25215A54AAE7042AC7
:10115000A8D1744B1B68744A12689B1AA2D4674BBF
:1011600000221A706A4B25215A546A4A2339117099
:101170002622995496E76B4B1B686B4A12689B1AA0
:1011800000D58FE76A48FFF7D7FE00280BD0654BE4
:101190001A68654B5A321A60584B02221A705C4B1F
:1011A00025215A547EE7FFF7FBFE7BE7FFF7F8FEA9
:1011B00078E75C4B1B685C4A12689B1A00D571E7A4
:1011C0000020FFF7B9FE00280BD0564B1A68564B8B
:1011D00014321A60494B04221A704D4B25215A547F
:1011E00060E7FFF7DDFE5DE700281ED1454B1B7869
:1011F000002B20D1454B1B78002B29D1404B1B786D
:10120000002B32D1404B1B78002B00D14AE73E4BDC
:1012100000221A703E4B213204219954DA690132BE
:10122000DA614448FFF766FE3CE7324B00221A6061
:10123000FFF71AFE36E7334B00221A70344B213287
:1012400001219954DA690132DA61FFF7BFFE29E71B
:101250002E4B00221A702E4B213202219954DA694A
:101260000132DA61FFF7C8FE1CE7254B00221A7035
:10127000274B213203219954DA690132DA611F4B7D
:101280001B78002B13D11C4B1B78022B0FD12A4B40
:101290001B78002B0BD11E4B9B7A002B07D01C4BCD
:1012A0001B68002B03D11A4B1B7A9B0706D4194BE2
:1012B00003221A70164B26215A54F3E61B48FFF7F7
:1012C0003BFE00280FD0174B1A68174B6E321A607E
:1012D0000A4B01221A700E4B25215A540D490A70EF
:1012E00026215A54DEE60B4B04221A70084B2621A5
:1012F0005A54D7E64C0320206203202055032020B7
:10130000990320209A032020980320209B0320206B
:1013100070032020540320205C0320200020104074
:10132000600320205803202050032020D5FBFFFF1E
:101330002B040000000080C0FD03202010B5234BCB
:101340005B7A002B2AD0224B1B78012B14D0204B28
:101350001B78032B10D01E4B1B78022B1ED11D4B6C
:101360001B78002B29D11C4A0A210120FFF76AFCB7
:10137000184B01221A7011E0184B1B88132B19D936
:10138000124B5B69002B0AD1104B9B695A1E93418B
:1013900004330F4A13700D4A2421535410BD0C4BD3
:1013A0001B78032BFAD10A4B06221A70074B242113
:1013B0005A54F3E7FFF7FAFCF0E7074A0D21012042
:1013C000FFF740FC034B00221A70E7E77003202070
:1013D00062032020630320200020104060032020AF
:1013E000F0B5DE4657464E464546E0B583B05B4A0B
:1013F00081235B01D258FF2313400B2B06D003B08F
:10140000F0BCBB46B246A946A046F0BD534A544B79
:10141000D3585B07F3D4534B5E7A9A7A9146197886
:1014200000239A461F0001934C4C4F4D4F482033E8
:101430009C464C4B9B46984654E05A469219537032
:10144000362B04D03A2B63D1363B994601E0082372
:1014500099460136F6B201239A461F0001930221F4
:101460003CE0072E5ED8721CD2B2464473704A45E7
:101470005ED33C4B9B5C6B2B05D001231F000026E9
:10148000019300212AE0374B9B78362B09D03A2B69
:10149000F3D1344BDA78354B1A725A6901325A61FA
:1014A000EBE7304A13791B06517909040B43D179D4
:1014B0000B43927912021A43002BDEDB294BDB78B7
:1014C000002B00D05242294B5A601A6901321A612E
:1014D000D3E701231F00002601930021204BE3588E
:1014E0005B0729D46359DBB26246835482690132B7
:1014F00082610129A1D00229B3D00029E9D1012BB1
:10150000ECD1184A013151701E001F000193E5E72C
:1015100001239A460023994601331F0000260193B8
:101520000021DBE701231F00002601930021D5E7FE
:10153000160001231F00D1E75346002B02D0094BB0
:101540004A469A72002F01D0064B5E72019B002B17
:1015500000D154E7034B197051E7C04600201040FA
:1015600008110000640320202411000070032020D3
:10157000074A084B4021D150074980204001C850FC
:1015800080210904D15080210905D1507047C046FF
:1015900000200A409012000000000A4010B5114BD4
:1015A000994211D801280FD812D00F4A95235B0118
:1015B0004020D0500D4A0E4B80204001D0500122D7
:1015C0000C4808F025FE02E00B48FFF7E7F810BDD5
:1015D000054A074B3F30D050044A10338020400169
:1015E000D050ECE70F27000000200A4000000A401E
:1015F0009012000000208640ACA6000010B50F4BF2
:1016000099420FD801280DD80DD00D4B0D4A8020DE
:1016100000049850103280200005985000220A489B
:1016200008F0F6FD10BD064B952252018020000403
:101630009850044A802000059850EFE70F270000DB
:1016400000200A40901200000020864010B50300E0
:101650000120002908DB094A914200D91100012B21
:1016600005D0022B06D010BD49420020F3E7FFF75A
:1016700095FFF8E7FFF7C2FFF5E7C0460F27000028
:1016800010B50A482822002105F0F2FF084B00227D
:101690001A70084B1A700849084A88588023DB00E2
:1016A00003438B50064B08221A6010BDAC03202068
:1016B000AB0320209C032020000050402810000095
:1016C00000E100E070B504000B2909D10378552B27
:1016D00006D14378522B36D0532B02D0512B61D0F8
:1016E00070BDC3781B028078184300B202F0F8FA8C
:1016F000E021890501F040FF434901F03DFF434DE2
:10170000286063791B022079184300B202F0E8FADE
:10171000E021890501F030FF3B4901F02DFF6860B1
:10172000E3791B02A079184300B202F0D9FAE02154
:10173000890501F021FF344901F01EFFA860344BF8
:1017400001221A70CCE7C3781B028078184300B2DC
:1017500002F0C6FAE021890501F00EFF2D4901F0E3
:101760000BFF2A4DE86063791B022079184300B211
:1017700002F0B6FAE021890501F0FEFE254901F0EC
:10178000FBFE2861E3791B02A079184300B202F046
:10179000A7FAE021890501F0EFFE1E4901F0ECFEF9
:1017A00068619DE7C3781B028078184300B202F09D
:1017B00097FAE021890501F0DFFE8321C90501F0D8
:1017C000DBFE124DA86163791B022079184300B239
:1017D00002F086FAE021890501F0CEFE8321C905D9
:1017E00001F0CAFEE861E3791B02A079184300B258
:1017F00002F076FAE021890501F0BEFE8321C905D9
:1018000001F0BAFE28626BE700003443AC032020ED
:10181000AB0320200000FA4410B50F4B1B78002BBF
:1018200008D155280ED10C4B01221A700B4B5432A3
:101830001A7007E05A1CD2B207490A700749C85407
:101840000A2A00D810BD08000B21FFF73BFF024B0E
:1018500000221A70F6E7C0469C032020A003202037
:1018600010B5084A81235B01D258FF2313400B2B8C
:1018700000D010BD034A044BD058C0B2FFF7CCFFD4
:10188000F7E7C0460000504024110000F0B5D646EE
:101890004F464646C0B582B0684B98469C256D01C0
:1018A0005C59802149040C40654BE401E40F1C7035
:1018B000644A53590B406449DB01DB0F9C460B70B3
:1018C000434658598023DB031840604B4002C00F49
:1018D000187043465F5980231B021F405C4B3F0436
:1018E000FF0F1F70565980235B011E40594BF604B1
:1018F000F60F1E70515980239B011940564B8904E5
:10190000C90F197043465A5980239B021A40534B02
:101910009203D20F1A7043465B5980256D022B400B
:101920004F4DDB03DB0F2B7001256C40E4B2A14669
:1019300064466C40E4B2A4466840C0B26940C9B293
:101940006A40D2B26B40DBB29A466F406E402500CF
:101950004D442D18ED19AD196D18AD185544002DD5
:1019600063DD4B465C425C41644207231C40A14658
:101970000E3B9846C1446446634263415B429C46C9
:10198000052398466346444623409C4605235B4214
:101990009846C4444C46644403005842584140426F
:1019A0000323184003382018C01B80194C426141A2
:1019B00049420224A1430331401851424A41524254
:1019C00004218A430532801853465A4253415B42F0
:1019D000062293430733C01802F082F9041C280042
:1019E00002F07EF9011C201C01F0E4FB1D4901F00E
:1019F000C3FD041C1C49FEF77DFD00281BD11B49BB
:101A0000201CFEF763FD002800D0184C201C184B4A
:101A10001860184C2568291C01F0F8FE164901F0E1
:101A2000ABFD291C01F09AF9206002B0E0BCBA4677
:101A3000B146A846F0BD0C48E9E7C04600000A40A0
:101A4000DB03202000200A40DA032020D9032020D5
:101A5000D8032020D7032020D6032020D503202020
:101A6000D4032020000020410000F0420000F0C21A
:101A7000DC032020E0032020CDCCCC3D014B1868B6
:101A80007047C046E003202010B50378DB061B0F2B
:101A900000D010BD00F056FC044B01221A70044B1C
:101AA00004491960044B1A70F3E7C046FC03202078
:101AB000400020209A99993FFD03202070470000A4
:101AC00010B50378DB061B0F00D010BD00F03AFC08
:101AD000014B01221A70F8E79A03202010B5037811
:101AE000DB061B0F012B00D010BD00F02BFC024BBE
:101AF00001221A70F8E7C0469B0320200378DB061A
:101B00001B0F02D1014B01221A707047990320204C
:101B1000F0B5C64600B582B001F0E8F86F4BC021C1
:101B20004900802292025A501A60802252025A5072
:101B30001A60FEF78DFEFFF71BFDFEF789FF00F030
:101B40001DFAFEF7CFFDFFF79BFDFEF745FEFFF701
:101B500047F9634F3E00634C02E02378012B09D024
:101B6000FFF75EFA3B78002BF7D000233370FFF7C6
:101B7000E5FBF2E700F0E6FB5B495C4805F092FD0F
:101B800005005B49FEF7E8FC00280BD05949280006
:101B9000FEF7E2FC002809D057492800FEF7DCFCDC
:101BA000002862D04F4B00221A70D9E74E4B98465E
:101BB000190005F077FD05004146002005F072FD93
:101BC00080464E492800FEF7C7FC002825D04C4926
:101BD0002800FEF7C1FC002827D04A492800FEF75C
:101BE000BBFC002829D048492800FEF7B5FC002896
:101BF0002BD046492800FEF7AFFC00282DD04449E1
:101C00002800FEF7A9FC0028CCD1404604F0FCF8DF
:101C1000404D04F069F8A861C4E7404604F0F4F8C8
:101C20003D4D04F061F82861BCE7404604F0ECF853
:101C3000394D04F059F86861B4E7404604F0E4F81F
:101C4000354D04F051F8A861ACE7404604F0DCF8EB
:101C5000304D04F049F82861A4E7404604F0D4F878
:101C60002C4D04F041F868619CE71F4D290005F0F8
:101C700019FD04F0CEF82900002005F013FD04F052
:101C8000C8F800902900002005F00CFD04F0C1F810
:101C900001902900002005F005FD04F0BAF81E4D62
:101CA0006B460020185603F0C7FF00221B4B02F0C2
:101CB00073FC04F019F82860164D6B460420185682
:101CC00003F0BAFF164A174B03F09CF804F00CF827
:101CD0002860154B01221A7064E7C04600E100E05D
:101CE000E603202067022020D0A600006802202002
:101CF000D4A60000D8A6000010A70000E0A60000AF
:101D0000E8A60000F0A60000F8A6000000A700006A
:101D100008A70000080020204000202000004440C8
:101D2000CDCCCCCCCCCCEC3FFD03202010B5544A1C
:101D300081235B01D258FF231340012B00D010BD3B
:101D4000504B5A69504B802109068C4662441A60F8
:101D500000F060F9FFF75CF94C4B1B780133DBB204
:101D6000042B12D8494A1370494B1B78002B13D10E
:101D7000484B1B78002B16D1474B1B780133DBB245
:101D8000032B34D8444A1370D9E7404B00221A7011
:101D9000424B01321A70E7E7FFF778FDFFF76EFE5E
:101DA0003F4B1860E4E73E4B374A12681C005A600C
:101DB000180000F0D7FAE06801F072FF00B2394B6A
:101DC0001880394B1B8880B21A1812B237490A8022
:101DD0001B1A1BB2364C2380098809B20120FFF779
:101DE00035FC218809B20220FFF730FCC4E72A4BFA
:101DF00000221A70FEF738FD0020FEF70DFD01F0FD
:101E00006FFF2C4901F0B8FB2B4901F0D3F92B4CA3
:101E100020600120FEF700FD01F062FF254901F07E
:101E2000ABFB254901F0C6F9254B1860216800F08D
:101E300095FFFC21890501F09FFB224B1860154B93
:101E40001B78002B00D17AE71F4B1C00586018004C
:101E500000F088FAE06801F023FF00B2124B18800E
:101E6000002804DD194A128812181A8067E7002832
:101E700000DB64E70C4B154A1288801A18805EE775
:101E800000400840AC032020EC032020E503202084
:101E9000FC032020FD032020E4032020E603202073
:101EA00008002020FE03202000042020040420201D
:101EB000020420200000C84100004344F803202011
:101EC000F4032020F003202040002020E8032020FD
:101ED00010B5FEF73FFDC006C00F10BD10B5FEF7F0
:101EE00039FD0007C00F10BD10B5FEF733FD4007E8
:101EF000C00F10BD10B5FEF72DFD8007C00F10BD3F
:101F000010B5FEF727FDC007C00F10BD002825D073
:101F1000174B1978102924D8164B1A68002A05D0B7
:101F20001300984220D09B69002BFAD1826102787D
:101F30001F2313401E2293431622134303700023D2
:101F4000438083800B4B18600B4A13885B0013801F
:101F50000131C8B2064B187040B2704701204042B0
:101F6000FBE701204042F8E701204042F5E7C04688
:101F7000060420200C04202078002020F8B51A4CFC
:101F80008C220021200005F073FB184B2361184BB5
:101F90006361184BE362184B2363184BA364184B1F
:101FA000E364184B6366184BA366184B8022A3505A
:101FB000174B0432A35000250B4E0727EB005B1B89
:101FC0009B009A5D01218A439A5527810C236381E6
:101FD0000F33A3810533E3812000FFF797FF01351D
:101FE0001C34052DEAD1F8BD10042020011F00008B
:101FF000891A0000F51E0000C11A0000E91E000049
:10200000DD1A0000DD1E0000BD1A0000D11E000018
:10201000FD1A0000F0B5C64600B5B54BB54A1288AA
:102020001A80B54B1C680025002C17D00127B04E34
:102030000BE0984743425841A8403388034333801C
:10204000A46901356DB2002C08D02369002B05D09E
:1020500022781742EDD19847A840EEE7A44B1A88A2
:10206000A649A74803881343DB430B80D243028071
:10207000A14B1C68002C00D137E10025A14E804601
:10208000070021E09D4B1B882B41DB0710D5002367
:102090006380A38022781F33134020221343023A27
:1020A000934323706369002B08D02000984705E014
:1020B00023781E229343162213432370A46901350B
:1020C0006DB2002C00D110E123781F2B02D9638858
:1020D0000133638022785309DF2AEFD8DBB29B00FB
:1020E000F3589F46864B1B882B41DB0706D422788A
:1020F0001F231340402213432370DFE76388628964
:102100009A42DBD8A2899A42D8D922781F23134059
:1021100080221343623A9343082213432370636976
:10212000002BCBD020009847C8E7638822899A42C9
:102130001CD9A38801339BB2A380012B0FD00023AD
:10214000A38022781F3313401E229343042213439B
:1021500023706369002BB1D020009847AEE7227846
:102160001E331340602213432370A7E762899A420B
:102170000FD90023A38022781F3313401E229343DC
:102180000222134323706369002B97D020009847E5
:1021900094E7A2899A4210D90023A38022781F33A2
:1021A00013401E2293430A22134323706369002BBA
:1021B00000D183E72000984780E7E2899A4200D85F
:1021C00082E00023A38022781F3313401E22934312
:1021D0000E22134323706369002B00D16EE72000A9
:1021E00098476BE7454B1B882B41DB070CD5A38831
:1021F0000133A38022781F2313404022134323700E
:102200006388013B638059E7628823899A4200D240
:1022100054E722781F2313404022134323704DE7D5
:10222000374B1B882B41DB0706D422781F23134032
:1022300040221343237041E76388A2899A4200D960
:102240003CE7E2899A4200D838E722781F231340FE
:10225000A0221343823A93430C22134323706369F1
:10226000002B00D12AE72000984727E73B882B4125
:10227000DB0706D422781F23134040221343237028
:102280001CE76288E3899A4200D217E722781F236D
:102290001340C0221343A23A9343102213432370E6
:1022A0006369002B00D109E72000984706E7434601
:1022B0001B882B41DB0700D500E722781F23134042
:1022C000402213432370F9E60023A38022781F33B2
:1022D00013401E2293431222134323706369002B81
:1022E00000D1EBE620009847E8E680BCB846F0BD98
:1022F0007A002020780020200C0420200A042020CE
:10230000080420201CA70000044B01221A70044A74
:1023100095235B018021C903D15070479C04202084
:1023200000200A40044B00221A70044A044B80210A
:10233000C903D1507047C0469C04202000200A40A9
:102340009012000010B5064B1B78012B02D0002B19
:1023500003D010BDFFF7E6FFFBE7FFF7D5FFF8E777
:102360009C042020F0B5C64600B582B00400C369C5
:1023700003624668311C006801F048FA051CE06100
:1023800067690021381CFEF79BF8002818D1616AA4
:10239000281C00F0E3FCA36A9846191C0190FEF784
:1023A000A9F80199002800D041466162E36A984685
:1023B000181CFEF79FF8002804D04346636201E032
:1023C000002363622169281C01F0D6F8051C616AAC
:1023D000381C01F0D1F8011C281C00F0BFFC051CC2
:1023E000A168301C01F012FAA16901F0C5F8011CC6
:1023F000281C01F00BFA071C256B291CFEF77AF844
:102400003B1C002800D02B1C1D1C676B391C181CA2
:10241000FEF75CF82B1C002800D03B1CE360A66094
:1024200002B080BCB846F0BD10B505F0F7F909233D
:1024300003600120404210BD10B5002904D0802364
:102440009B014B60002010BD05F0E8F916230360E6
:1024500001204042F7E7012070470120704710B586
:1024600005F0DCF9162303600120404210BD002076
:10247000704700207047100070470000F0B5C64656
:1024800000B51B4B1B4A1C49CA501C48C2501C4C6F
:10249000E2501C4DEA501C4FFA501C4EF2501C4D9D
:1024A000EA501C4CE2501C488446C2501B48C250A3
:1024B0001B498846CA501B49CA50043B1A4A0E4958
:1024C000CA500E49CA500E49CA500E49CA50FA5055
:1024D000F250EA50E2506446E250C2504146CA50BF
:1024E0001049CA50102007F0FBFD80BCB846F0BD73
:1024F00004080000030000B100000A4000200A4068
:102500000020864000400840000086400080864051
:1025100000000F40008010400000104000201040DC
:102520000000504000A046400100002670B53F4B1F
:1025300000229A62DA628825DD633D483D4C043210
:1025400002511D64043202513B4ADA609A61D96833
:10255000802292041143D96099690A439A618221C9
:102560001963364A5A6359649A648026995104362D
:102570009A51683699515A315A5083229A665A664E
:102580002F4A1A665B39C82299502E4A1A619A65F9
:102590008C2299502C4A383E9A51083E9A51143652
:1025A0009A51303E9A51D9655951CC2299501C32DA
:1025B0009950264A9A605A60254ADA641A65D966A3
:1025C0001967D9675C35595157315A5008395A50F3
:1025D00014395A5028395A505A679A6708315A5054
:1025E00004395A501B4B9522520194461A4A6146AF
:1025F0005A501A4D802252015A51194A1A511949FA
:102600005E58194A32435A50184E9959184A114384
:10261000995118495E5832435A50174B62468350BD
:10262000164B4351164B035170BDC04600804240CB
:1026300000200A40D012000083000C0082000C0031
:10264000830004008100020081000E00810004006C
:1026500081000C0000000A400028002090120000B9
:10266000003800209013000005000500481000000D
:102670000303000028100000004C400440008008C4
:10268000404CC00CF0B5C64600B5274A1368274930
:102690000B401360C0228021D2024903002007F0C2
:1026A000C5FF234A234B2449D15042241700234E0F
:1026B0008025AD04BB592B4205D1214807F010FD00
:1026C000013C002CF6D11A4C1E4BE3589846802250
:1026D000802192024903002007F0A8FF154B164AFB
:1026E000E2504224124F154E8025AD04BB592B42B7
:1026F00005D1134807F0F4FC013C002CF6D10C4A3C
:10270000104BD15843465801C01A80004044C000C5
:10271000FDF716FD0C4BC31800200A229A424041D7
:1027200080BCB846F0BDC04638010B40FFFFFFE05B
:1027300000F00A402C1300000100000E04120000FB
:10274000D10300005011000035F8FFFF70B5274A93
:10275000274B0021D1502749086880239B00434024
:10276000F0242401234043400B6023490B680320DD
:1027700083430B60214BD15802388143D150D1584B
:102780001F480140D150C230FF3001221421800186
:1027900007F00CFF1B4807F065FE144C174D184E50
:1027A0000DE0635933406351625980235B0013434A
:1027B000635115498022920063581342FCD0FFF701
:1027C00061FF0028EDD00B490868102242403023F9
:1027D000134043400B60002007F0CAFE0B49C022A3
:1027E00092008B580A4803408B5070BD00F00A409D
:1027F0000813000004010B4000010B400811000009
:10280000FFFEFFFFE0A700000412000000E100E06F
:10281000FF00FFFF03480449044A43581340934212
:10282000FBD1704700F00A4004120000000B2000AA
:1028300070B582B01C491D4C200007F0A1FC1C495A
:10284000200007F00DFD1B4AA3581B490B40A35065
:102850000023009310220021200007F0F3FC002247
:102860000021200007F0DEFC144E00223100200081
:1028700007F0CEFC01250095002310220021200046
:1028800007F0E0FC01220021200007F0CBFC012230
:102890003100200007F0BCFC094BE550083B032247
:1028A000E25002B070BDC046DCA7000000208640A8
:1028B000D4A70000041800007F00FFFF10270000CD
:1028C0000811000070B50D490D4C200007F058FCB0
:1028D0000C49200007F062FC0B49635801221343A6
:1028E00063500A48C42189004358FF25AB433F3D4C
:1028F0002B434350064BE25070BDC046D0A70000AA
:1029000000400840BCA700002810000000E100E0E3
:102910000811000010B50E490E4C200007F030FCE5
:102920000D49200007F03AFC0C4AA35801210B4343
:10293000A3500B4B9C46C42080001A58094B1A40E8
:1029400080231B04134362461350074BE15010BD14
:10295000B8A7000000008640A4A7000028100000CF
:1029600000E100E0FFFF00FF0811000010B506497C
:10297000064C200007F004FC0549200007F00EFC7F
:10298000044B0122E25010BDA0A700000080864049
:102990008CA700000811000010B51549154C200047
:1029A00007F0A4FB90235B01E158C022D2000A4348
:1029B000E250E158802252000A43E2500E4B0022BE
:1029C000E2500E4B2732E2500D4BE25807218A436A
:1029D000E250E2580B490A40E2500B4BE258042106
:1029E0000A43E250E25803390A43E25010BDC046A0
:1029F00088A7000000000F401412000024120000FD
:102A000038120000FFF8FFFF2812000070B51C49C3
:102A10001C4C200007F010FD1B49200007F0E8FCCB
:102A200088225201A35819490B40A35018496058F5
:102A3000412343401B041B0C43406350154823585B
:102A40009C46072159403F230B4061464B40235091
:102A50001148235821588C4601210B4065466B4094
:102A60000B406B4023500D4823589C468023DB00CD
:102A700065462B432350A3580B43A35070BDC0465B
:102A800084A700000080104078A70000FF7FFEFFB1
:102A900010110000141100000411000028100000A3
:102AA00070B51F491F4C200007F0C6FC1E492000CE
:102AB00007F09EFC88225201A3581C490B40A350EA
:102AC0001B496058152343401B041B0C43406350B3
:102AD000184825582D2169403F230B406B40235057
:102AE00015482358255801210B406B400B406B4083
:102AF0002350124825588023DB002B432350104DD0
:102B0000C3239B009C46E8580E4B18408023DB01F2
:102B1000034360462B50A3580B43A35070BDC046DF
:102B200074A700000000104068A70000FF7FFEFFB0
:102B30001011000014110000041100002810000002
:102B400000E100E0FF00FFFF70B51F491F4C2000AF
:102B500007F072FC1E49200007F04AFC882252014F
:102B6000A3581C490B40A3501B49605815234340F0
:102B70001B041B0C43406350184825582D21694005
:102B80003F230B406B402350154823582558012103
:102B90000B406B400B406B4023501248255880235C
:102BA000DB002B432350104DC3239B009C46E85869
:102BB0000E4B18408023DB03034360462B50A35881
:102BC0000B43A35070BDC04664A700000020104016
:102BD00058A70000FF7FFEFF101100001411000035
:102BE000041100002810000000E100E0FFFF00FFDA
:102BF00070B51F491F4C200007F01EFC1E49200025
:102C000007F0F6FB88225201A3581C490B40A35041
:102C10001B4960582B2343401B041B0C434063504B
:102C2000184825581A2169403F230B406B40235018
:102C300015482358255801210B406B400B406B4031
:102C40002350124825588023DB002B432350104D7E
:102C5000C0239B009C46EB581B021B0A8020C0052A
:102C6000034360462B50A3580B43A35070BDC0468E
:102C700054A700000000504048A70000FF7FFEFF5F
:102C800010110000141100000411000028100000B1
:102C900000E100E010B50F490F4C200007F05AFA90
:102CA0000E49200007F036FA0D4AA15827234B4061
:102CB0009B059B0D4B40A3500A496058122242408D
:102CC0003F23134043406350074AA35801210B435D
:102CD000A35010BD38A7000000A046403CA700004C
:102CE000081100000C1100000411000010B5FFF7DE
:102CF000C5FBFFF71BFCFFF729FDFFF799FDFFF769
:102D0000E1FDFFF707FEFFF731FEFFF745FEFFF796
:102D10007DFEFFF7C5FEFFF717FFFFF769FFFFF71F
:102D2000B9FFFFF777FD084AB82100235354074A3B
:102D30005354074A1C395354064A70395354064AAF
:102D40000839535410BDC046540620209805202051
:102D5000F8042020C8042020A0042020F0B5C64696
:102D600047027B0A9C464B025A0A904645004A009D
:102D70002D0E120ECE0F00B59909C40FBF09AB1A64
:102D8000B4424BD0002B39DD002A00D177E0FF2D73
:102D900000D1C1E08022D20411431B2B00DCFFE0F4
:102DA000013F7A0100D4B1E001277F42BF01BA0997
:102DB00016001000FDF7B2FB330005388340854252
:102DC00000DCD5E0B94F2D1A1F405A0700D178E139
:102DD0000F221340042B00D173E104377B0100D490
:102DE0006FE1681CFE2D00D07DE0FF200022C005B1
:102DF0001043E407204380BCB846F0BD002B46D00A
:102E0000531B002D73D1002F00D139E1012B00D1CC
:102E10007EE1FF2B00D156E1013B6EE0002B00DC90
:102E200085E0002A51D1002972D05A1E012B00D111
:102E30002CE1FF2B70D01B2A4CDC13000800202251
:102E4000D840D31A99400B005A1E93410343FF18F0
:102E50008023DB041F4200D12CE10135FF2DC4D0BB
:102E6000934A79081140012217400F437A0700D096
:102E70008DE01F42B5D1FB089C462B002EE00029B7
:102E800046D0012B67D0FF2B46D0013B85E7FE20C3
:102E90006A1C104200D099E0002D00D0E6E0002F1F
:102EA00000D12FE1002919D080257A1AED042A4299
:102EB00000D15AE13400CF1B00D18FE001202F4216
:102EC00012D1FB089C46002308E0FF2D24D01B2BC9
:102ED00000DC9AE00537FB089C462B006246520254
:102EE000520AD8B283E7C0B2BA01520A7FE7FF2A7A
:102EF00000D1E8E08020C00407431B2B00DC88E001
:102F00004F1E34001500790100D54DE72B00043722
:102F1000FA089446FF2BE1D16346002B00D145E12E
:102F20008022D2031A435202FF20520A5FE7002B8D
:102F300057D0531B002D78D1002F00D1A1E05D1E8A
:102F4000012B00D1A2E0FF2B00D1BDE01B2D00DD45
:102F5000C0E02B0070E0791A4A0100D4B6E0890184
:102F60008D092800FDF7DAFA2B000538834001258A
:102F70002022401B0130121A1F009340C7405A1EE6
:102F800093411F432AD000257B0700D108E10F237E
:102F90003B40042B00D020E77B0100D521E76AE706
:102FA00008002022D840D31A99400B005A1E9341A2
:102FB0000343FF1A7B0100D5F8E67B0700D15AE7EF
:102FC0000F233B40042B00D007E754E77B1A1A007D
:102FD0005B0158D4002A00D0EAE600240020002239
:102FE00005E7FE226B1C1A4231D1002D77D1002F4C
:102FF00000D1A6E0002900D1BCE07A18530100D42A
:10300000BAE092010120520AF1E68022D204114373
:1030100014E738002024D840E31A9F407B1E9F41CC
:10302000074334001500CF1BC4E7FF2A4CD01B2BED
:1030300050DC8020C004074338002025D840EB1A1C
:103040009F407B1E9F41074315007F1800E7FF2B21
:1030500000D1CAE67F187F087A0700D190E00F22DE
:103060003A40042A00D18BE0043751E7002F5DD1AC
:10307000002900D086E080220024FF20D203B6E69B
:1030800034000F0044E73400CA1B91E67B185A0154
:1030900000D47EE0064F5B081F405A0758D00F222D
:1030A0001340042B54D00223043731E7FFFFFFFB0A
:1030B000FFFFFF7D7B0704D00F233B40042B00D094
:1030C0008BE62B0024E73400C44625E7CB089C465A
:1030D000012303E70531CB089C461300FEE6002FD1
:1030E000F2D0002936D08023DB039C4502D39845DB
:1030F00000D2C44680226346D2031A435202FF2004
:10310000520A74E6002900D167E73400C446E5E6B8
:10311000CB1B5A0124D59B019C092000FDF7FEF929
:103120002300053883403400013521E7002911D000
:103130008023DB039C45DDD39845DBD23400C446B5
:10314000D8E7002900D149E7CB089C460023C5E613
:10315000022590E680226346D203FF201A4346E60A
:10316000DB089C4634000123B8E6002A15D1002470
:1031700000203CE60023B1E6D3089C460023ADE6E0
:103180001D0078E680224346D2033400FF201A4314
:103190002DE6DB089C460123A0E6D20894469DE676
:1031A00001207B0100D59EE63900CDE7FF201A0003
:1031B0001DE6C046F0B54F464646D6464502C0B568
:1031C000C30F470099460E1C6D0A3F0E5AD0FF2FC1
:1031D00021D08023ED00DB041D43002398469A464E
:1031E0007F3F74027300640A1B0EF60F002B1FD082
:1031F000FF2B42D080220020E400D20414437F3B06
:103200004A46FF1A434672400F2B00D99CE0714991
:103210009B00CB589F46002D59D108239846063B6A
:1032200074029A467300640A1B0EF60F002BDFD15E
:10323000002C3BD101234A464146724019430E29D6
:1032400018D86548890041588F465346022B00D153
:10325000B9E0032B6ED04A462C00012B40D1002050
:103260000024C0052043D2071043E0BCBA46B14653
:10327000A846F0BDFF200024F3E7002C20D1022354
:10328000FF3FD8E7002D05D104239846033B0027D4
:103290009A46A6E72800FDF741F97627431F9D408F
:1032A00000237F4298469A463F1A9AE72000FDF78E
:1032B00035F9431F9C4076235B421B1A00209FE791
:1032C000032342461A4390460320FC3398E70C231D
:1032D0009846093BFF279A4683E703282CD0320003
:1032E00038007F30002847DD630704D00F232340D8
:1032F000042B00D00434230103D53800374B803031
:103300001C40FE28B6DCA401640AC0B2A9E78024F0
:103310000022FF20E403A4E78023DB031D4201D049
:103320001C420BD08024E4032C4364024A46FF2055
:10333000640A96E74E462C008023DB031C4364029C
:103340003200FF20640A8CE76D01600185422ED2B5
:103350001B230024013F0126290064006D00002981
:1033600001DB854201D32D1A3443013B002BF3D1FD
:103370006B1E9D412C43B3E703001A3300DA6EE75E
:10338000012321001B1A9E37D940BC400B00611E4F
:103390008C412343590704D00F211940042900D040
:1033A0000433590113D49B0100205C0A59E71A2306
:1033B00001242D1ACFE7981E434258414042320063
:1033C0000024C0B24DE74A46FF20002449E701200F
:1033D000002446E708A8000048A80000FFFFFFF708
:1033E00030B543024200C50F48025B0A440A480058
:1033F0009C46120E000EC90FFF2A11D0FF280CD0D8
:10340000012382420AD1A44508D18D4211D0002A5D
:1034100004D163465A1E934100E00123180030BDD9
:103420000123FF28FAD162462243F7D12B004B40FB
:10343000F4E70023F2E7C04643025B0A42009C46E1
:10344000C30F480210B5440A4800120E000EC90FFF
:10345000FF2A1AD0FF280BD0002A24D16246002868
:103460001ED1002C2ED0002A32D1480001380BE0AA
:10347000002C2AD1002A02D16246002AF5D08B42C4
:103480001DD001205B42184310BD6246002A1CD1AA
:10349000FF28F6D1002C18D120008B42F1D1F3E7A0
:1034A000002AE2D0EBE70028EBD08B42E9D1824240
:1034B000E7DC04DBA445E4D80020A445E4D25800AE
:1034C0000138E1E7002ADFD0DBE702204042DBE7FA
:1034D0008B42D6D1EEE7C04643025B0A42009C46CF
:1034E000C30F480210B5440A4800120E000EC90F5F
:1034F000FF2A15D0FF280BD0002A1AD162460028D7
:103500001DD1002C22D0002A32D1480001380FE012
:10351000002C0CD1002A14D16246002AF5D010E00C
:103520006246002A03D1FF2805D1002C1CD00220BE
:1035300010BD00280DD101205B421843F8E7002A96
:10354000E3D08B42F7D158000138F1E7002AEFD0E1
:10355000F1E78B42EFD18242EDDCF4DBA445EAD8FF
:103560000020A445E4D2EEE720008B42E3D1DFE760
:103570008B42E0D1F2E7C046F0B54646D6464F460C
:103580004402C0B5C30F460098460D1C640A360EAF
:1035900000D1CBE0FF2E6ED08023E400DB041C437F
:1035A000002399469A467F3E6F026B007F0A1B0EEE
:1035B000ED0F002B6DD0FF2B00D1A6E07F3BF6185E
:1035C0004B460A2B00DD82E08023FF00DB041F4313
:1035D00043466B4098464B460022022B0FDD49467E
:1035E00001238B40A621C9000B4200D06FE090213F
:1035F00089000B4200D0D3E08821194264D1200C0D
:103600002404240C21003B0C3F043F0C79435C4311
:1036100047435843E4190B0C1B199F4202D98022DF
:103620005202801809041A04090C52189401611EF0
:103630008C411B0C920E1B1814439B011C431B0155
:1036400000D5CDE030007F30002800DCAEE063071D
:103650000BD00F2332002340042B06D00434230167
:1036600003D580321000684B1C40FE2866DCA301A5
:103670005B0AC0B21EE0002C00D08BE00823994604
:10368000063B6F029A466B007F0A1B0EED0F002B64
:1036900091D1002F61D14A4601231A4391460A2A4B
:1036A00015DC43466B4098464B460122022B96DCC4
:1036B00000200023C00518434346DD072843E0BC33
:1036C000BA46B146A846F0BDA8463C0092465346CD
:1036D000022B33D0032B11D0012BE9D030008030E6
:1036E000721C002863DD6307B9D00F232340042B2D
:1036F000B4D1B4E70F2A78D0A8463C008023DB037E
:1037000023435B02FF205B0AD4E7FF36002F2FD153
:1037100002234A4613430A2BD9DC42466A409046AC
:103720004A46002A0AD09946022258E7002C08D1BE
:1037300004239946033B00269A4635E7FF200023E1
:10374000B8E72000FCF7EAFE7626431F9C400023E2
:10375000764299469A46361A26E73800FCF7DEFE8E
:103760004B46361A763E0A2BB1DC053887402FE7E8
:1037700003234A461A4313000A2ABBDC42466A4026
:10378000904601229A40882113000322194200D159
:1037900035E799E70C239946093BFF269A4603E74C
:1037A000002398468023FF20DB0383E732000300D9
:1037B0001A3300DA7CE79E320123210094401B1A61
:1037C000D940621E94410C43630704D00F23234069
:1037D000042B00D00434630111D50120002369E7D4
:1037E000012362081C40144378E78023DB031C425A
:1037F00084D01F4282D1A846FF203B435AE7A30151
:1038000000205B0A56E7C046FFFFFFF7F0B5C6464B
:1038100047027B0A4A0245009C46C40F530A4800EF
:10382000984600B52D0EBF09000ECE0F9209FF2855
:1038300000D171E001235E402B1AB4423CD0002B32
:1038400000DC9CE1002800D1A3E0FF2D00D18BE03B
:103850008021C9040A431B2B00DCFBE0013F7B01F4
:1038600000D47BE001277F42BF01B9090E000800A8
:10387000FCF754FE330005388340854200DCD2E07B
:10388000B44F2D1A1F405A0700D1F6E00F22134003
:10389000042B00D1F1E004377B0100D4EDE0681C7B
:1038A000FE2D00D090E0FF200022C0051043E40769
:1038B000204380BCB846F0BD002B00DC77E1002837
:1038C0006FD1002A4CD0591E012B00D146E1FF2BAD
:1038D0004AD01B296ADC0B0011002020D940C31AF2
:1038E0009A40531E9A410A43BF188023DB041F42AB
:1038F00000D1BBE00135FF2DD5D0974A79081140A2
:10390000012217400F437A0700D09AE01F42C6D128
:10391000FB089C462B004DE02B00FF3B002A2ED1DC
:1039200001214E40B44200D1B4E0002B50D0002D14
:1039300000D0EAE0FF23002F00D1FAE0591E012B4E
:1039400000D15CE1FF2B00D13DE11B2900DC22E12D
:10395000571E340005007B0100D583E72B00043798
:10396000FA089446FF2B25D16346002B9BD080227A
:103970006346D2031A435202FF20520A95E7B4422B
:1039800000D1A4E0002B23D0002DD3D0C4463400B6
:10399000EDE7002AE4D0012B39D0FF2BE4D0013B26
:1039A00059E7FF2DE0D01B2B00DCA6E00537FB0814
:1039B0009C462B0062465202520AD8B275E701209B
:1039C0003A007B0100D43FE1C0B2BA01520A6CE771
:1039D000FE216B1C194252D1002D00D0ACE0002F0B
:1039E00000D11AE1002A00D1F4E08021BB1AC904F9
:1039F0000B4200D13CE10124D71B3440002F46D0BC
:103A000001200F42E1D1FB089C460023D2E7BF1AF8
:103A10007A0100D4DAE0BD01A809FCF77FFDAB090B
:103A20000538834001252022401B0130121A1F0057
:103A30009340C7405A1E93411F4328D000257B075F
:103A4000BDD00F233B40042B00D024E77B0100D5E1
:103A500025E75DE711002020D940C31A9A40531E84
:103A60009A410A43BF1A7B0100D5FDE67B0704D0CB
:103A70000F233B40042B00D00DE72B0070E7BB1A4F
:103A800019005B0162D4002900D0EFE60024002079
:103A900000220AE7002B1CD0002D00D003E7FF23F3
:103AA000002F47D0591E012B58D0FF2B00D18BE09F
:103AB0001B2900DD90E00B0039002025D940EB1ACE
:103AC0009F407B1E9F410F430500BF180DE7002B51
:103AD00017D1FE216B1C19421BD1002D00D080E0B4
:103AE000002F00D1AEE0002A74D0BA18530100D4E0
:103AF000AAE092010120520AD7E68021C9040A43B4
:103B0000EAE6002DCBD0C44631E73400FF20002286
:103B1000CBE6FF2B00D1C6E6BA185208510705D0F4
:103B20000F21171D1140042900D019E7D20894462F
:103B300040E73400170013E7002F75D1002A00D0AA
:103B40009DE080220024FF20D203AEE60124D11B99
:103B500034408BE6FFFFFFFBFFFFFF7DBB185A01E0
:103B600000D494E04D4A5B081A40590700D192E016
:103B70000F210B40042B6ED00223171DF0E6002B03
:103B800000D125E7411B0B00002D00D1D3E6802397
:103B9000DB041F43D9E63B002024CB40611A8F4051
:103BA000791E8F411F4334000500D71B5BE7002BB4
:103BB0008FD0431B002D00D172E71B2B0CDC802122
:103BC000C9040F4378E73400C446CDE6FB089C46A1
:103BD0000123EFE60023EDE60532D3089C460300FF
:103BE000E8E6002FF0D0002A37D08023DB039C4585
:103BF00000D2BCE6984500D3B9E6C446B7E6D31B6D
:103C00005A0130D59B019C092000FCF787FC23005A
:103C1000053883403400012505E7002A18D0012427
:103C20000023C4463440C5E6002A16D08023DB03B7
:103C30009C4500D29BE6984500D398E60124C446F3
:103C4000344094E6002A04D0D3089C460023B1E611
:103C50000024002029E6023B68E780226346D20365
:103C6000FF201A4321E6DB089C4634000123A1E62D
:103C7000002B00D10AE7DB089C4600239AE680224D
:103C800043460124D203FF201A4334400DE6DB08EB
:103C90009C4601238EE6022348E7C046FFFFFF7DD6
:103CA00041024200C30F490A0020120E7E2A03DDA2
:103CB0009D2A02DD094A98187047802000040143BC
:103CC000952A07DC9620821AD1404842002BF3D176
:103CD0000800F1E7963A9140F7E7C046FFFFFF7F03
:103CE00070B5002813D0C317C5185D40C40F280055
:103CF000FCF714FC9E2301001B1A07280EDD082880
:103D000030D008398D406D026D0AD8B201E0002430
:103D10000025C0052843E407204370BD042816DDB4
:103D2000052801D0421F9540104A2A4068070AD052
:103D30000F202840042806D00432500103D50B4B35
:103D40001A409F235B1A9201550AD8B2E1E702009C
:103D500028001B329040421E90410522521AD54045
:103D60000543E1E76D0296206D0AD2E7FFFFFFFBF6
:103D7000F0B54746CE4680B583B0009001910E0362
:103D80004D0001995F00CC0F710A009E6D0D760FFA
:103D90000E43009900920193C8001903019B7F0D07
:103DA000DB0F9C464B0A0099490F1943009BDB002F
:103DB0009846EB1B644565D0002B14DD002F00D026
:103DC000AEE00F004246174300D14DE15A1E012BD1
:103DD00000D1C9E2AF4FBB4200D121E2382A00DD59
:103DE00058E2130061E1002B00D1A9E07B1B002DFC
:103DF00000D0D7E13400044300D18AE25C1E012BDD
:103E000000D125E3A34DAB4200D1CFE2382C00DC3A
:103E10007FE34246013A9146904592418E186446AE
:103E20001D00320261D501235B4299469A4E300053
:103E3000FCF774FB0300083B484620210700CA1A20
:103E4000D7409E4098403A00814632430600AB423C
:103E500000DADDE1581B33000130091A8B40C640FF
:103E60005D1EAB4117008F4033431F43C2403B00F0
:103E70001600134300D117E27B0700D05FE1A44690
:103E8000380082E0002B00DCCCE0002F00D08AE07C
:103E90000F004246174300D1E6E05F1E012B00D120
:103EA00046E27C4A934200D1BAE1382F00DCE0E2DE
:103EB000421C9146802212041D00164215D01600A5
:103EC000744B01359D421DD0744A012116404A466B
:103ED00053081140F7070B431F4376085B0709D0CF
:103EE0000F23B9463B40042B04D04B461F1D4F45C2
:103EF0009B41F61A330200D487E0664A01359542A9
:103F000000D085E02B00002600271B053343E40783
:103F100023433800190003B0C0BCB946B046F0BD19
:103F20005C4FBD4200D12EE2382B00DCBAE0431ECC
:103F30009842804136189946330200D573E7D4E79A
:103F4000574F6B1C3B4200D04EE133000F004246FE
:103F500003431743002D00D0E0E1002B00D119E20C
:103F6000002F00D11CE2821A9042AD41731A5B19F6
:103F70001D0200D4E3E24346181A8045924107002F
:103F80008E1BB618374300D1F1E2644607000123C7
:103F90003100804632023DD443464F07DA081743CA
:103FA0000023CD08F9E03B4FBD4200D138E1382B6A
:103FB00000DD53E180273F0439431F2B00DD02E27F
:103FC0002027FA1A0F00944697404246DA401743DA
:103FD000B9466246474697403A00D940571EBA4113
:103FE0004F4676183A431318834280419946361A51
:103FF000330200D564E74A46530700D1BBE20F23E2
:104000001340042B00D070E74F462B00F8082CE03B
:104010006B055B0D214AFF081640720776021743B5
:10402000360B72E7002B00D194E07B1B002D00D0F3
:104030001DE13500054300D14EE25D1E012B00D18C
:104040003BE2144A934200D1D0E1382D00DC8CE2EF
:10405000424601329146802212041D001600114290
:1040600000D02DE70E0040E7C00872071043094A50
:10407000F508934200D08BE107002F4307D080263C
:1040800036032E4336030700024B360B3DE700266E
:10409000004B3AE7FF070000FFFF7F00FFFF7FFFB5
:1040A000FE07000080273F0439431F2B00DDBCE0E2
:1040B0002027FA1A0F00974094463A004746DF40FF
:1040C0003A4391464746624697403A00D940571EC8
:1040D000BA414F46761A3A43831A9842804199462C
:1040E0003618330287D57602760A002E00D09EE677
:1040F0004846FCF713FA030018331F2B00DC9BE63D
:104100004A46083882409D4200DDA1E05B1B581CF6
:104110001F2800DC0FE217001F3BDF40202805D0DE
:1041200040231B1A9A40531E9A411743002F6CD00C
:1041300007231900B84639403B4200D12CE70F2332
:104140003B40042B00D03BE10025033B320200D56D
:1041500060E75AE7C84F6B1C3B4200D0B3E0330026
:104160000343002D00D055E10F0042461743002BBA
:1041700000D1C9E1002F00D112E1821882428041B2
:104180007618361A330200D5E0E1170037433CD0E9
:104190000023D20877071743F5082E035B05360B7B
:1041A0005B0DB2E6B54CA74200D1FFE0382B7EDCB8
:1041B0008024240426431F2B00DD1DE1202534002C
:1041C000ED1A0200A840AC40DA40451EA841DE408E
:1041D00014432043891B43461B1A98459241994634
:1041E00064463D008E187CE74346C71AB946B8427C
:1041F000BF41731A7F42DB1B1F0200D580E04F4690
:104200001E001F4300D070E70024002300267CE638
:104210009B4EED1A16400200430700D0EFE6F3E68E
:104220007207C0081043F50826E71F000A00203F68
:10423000FA409446202B05D04027FB1A994043466C
:104240000B4398464246531E9A4163461A4343E73E
:10425000EB1A8B4D15406F07ED089EE7431C9946FE
:1042600080231B041E4200D13FE61E0028E6834D3A
:10427000AF4200D1BAE0382B00DC03E14346013302
:10428000994680231B043D001E00194200D017E60A
:104290000E002AE6421E90428041361891461D00CB
:1042A000320200D5BFE520E6002700262DE6434672
:1042B000013B984592418E18994664463D00330271
:1042C00000D5B0E511E66D4DAB4200D11BE642468C
:1042D0008218824280417118091AC8075208104397
:1042E00081464E08520700D148E10F221D000240CE
:1042F000042A00D0F9E5C208770717430D094CE7F7
:1043000043461B1A984592418E1B99466446B6183F
:10431000EBE6424664460E00D008A6E6002B00D02D
:10432000DEE0002F42D180260024544B3603ECE51A
:1043300083188342804175182D1A2A0200D4C5E0E3
:104340004F4A5B081540EA071A4369085B0700D12A
:1043500019E10F231340042B00D100E1171D9742F0
:10436000B64102258E1B50E64346C21A9042804158
:10437000761A36189146330220D4D30877071F43A4
:10438000F508012309E7C00873071843F50873E629
:10439000070002E7002F00D136E764460E004046D2
:1043A000C008770700230743F508F6E643464807A9
:1043B000DA0864461043CD085EE66446012592E6BD
:1043C000B946002591E51F000A00203FFA409446B7
:1043D000202B05D04027FB1A994043460B439846B3
:1043E0004246531E9A4163461A43FCE5434648073A
:1043F000DA081043CD083FE61C003500203CE540BC
:10440000202B03D04024E31A9E403043431E9841A2
:104410002843E0E6002BE9D07307C0084246184362
:104420000B00F508134300D126E680231B031D4231
:1044300006D0CE081E4203D13500D00849070843F4
:10444000430FC000ED00C0085B071843ED0813E6FA
:1044500043461B1A984592418E1BB618994619007F
:104460003302AAD4CB0877071F4364460123F5081B
:1044700093E63B00A1E5C046FE070000FF070000F1
:10448000FFFF7FFF80252D042E431F2B43DC2025BB
:10449000EA1A3500944695400200DA401543624618
:1044A0009040DE40421E90418919284340444045D7
:1044B000924181463D008E1A9AE5030043444345EC
:1044C00092417518AD1A2A0200D539E76F07DB084B
:1044D0001F43ED08012360E642460E00D008C4E504
:1044E000C00873071843F508002F00D1C4E58023E6
:1044F0001B031D42A4D0CE081E42A1D1D0084907FB
:104500006446350008439BE7002F00D044E50026B1
:10451000FBE423004FE61D003200203DEA409446B4
:10452000202B03D04025EB1A9E403043431E984178
:1045300063461843BAE720210023091A92E41700C2
:1045400010001E001F4300D02AE75DE6114BD20881
:104550001E407707760201231743360BD5E4D708B0
:10456000490702230F432D0917E62B008DE7644608
:1045700000230026C9E42B00D00876E57707C2089F
:1045800017430D0909E6D208490711430F0002231A
:104590002D0902E6FFFF7FFFF0B54546DE46574690
:1045A0004E460400E0B50D0089B0009401951F004F
:1045B000019B16001B03190B019A019BD20F5B0094
:1045C00080460C0093465B0D00D1C1E08E4A9342B9
:1045D00034D0009C019DC900620F0A438021090468
:1045E0001143E2009046894A00249B189A46002312
:1045F000039100933B03190B7A0030008946520D5A
:10460000FD0F002A00D17FE07F4B9A426ED0C90097
:10461000730F0B4380210904194389467B49F3003A
:10462000521851468A1A924600215E466E400F2C5F
:1046300000D9FBE0764AA400125997460A00009977
:104640000A43039200D0B7E09A460223904608241A
:104650000093CFE72E0000210023002288461B058F
:104660001343F60733434046190009B0F0BCBB467C
:10467000B246A946A046F0BD039B5D469946434617
:104680000099022900D1F5E1032900D1A1E0012917
:10469000E0D054465F4AA4180494002C00DCFAE1F0
:1046A0005A0704D00F221A40042A00D076E22E00C6
:1046B000DA084946CB0107D5574B19408946802176
:1046C0005346C9005B180493544B0499994208DC83
:1046D000484643071343984642024B05120B5B0DB5
:1046E000BDE7002100228846474BB8E752460B0041
:1046F0004B49334352189246002B58D1022214439F
:1047000000220221914690E70B00334349D0002953
:1047100000D19EE10800FBF701FF0B235B429C46A2
:104720000200844411004846083988401D23814610
:1047300060461B1A3000D8400300484603439946A0
:1047400033008B40374952445218924600216CE79F
:104750000A0000990A4303921CD0002C00D168E1A2
:104760002000FBF7DBFE02000B381D231B1A00980C
:1047700011002500D84008398D4003002B430393D6
:10478000009B8B409846284B00249B1A9A46002396
:1047900000932FE7002398469A46013304240093A0
:1047A00028E7012214430022012191463DE703231B
:1047B00003211C43330038E79A46032303940093F4
:1047C0000C2417E700238022984600260E4B120384
:1047D00045E78022494612030A43120398462E00F9
:1047E000094B120B3BE7802203991203114202D0BE
:1047F00049461142F0D08022039B12031A43120350
:104800005E46014B120B2AE7FF07000001FCFFFF89
:1048100084A80000FF030000FFFFFFFEFE0700006A
:1048200001F8FFFFF30300000DFCFFFF039989452A
:1048300000D2F5E000D1F0E05246013A9246002263
:104840004446904603984A461F0E120217431B0225
:1048500003933B04110C1B0C00938B46FBF7F6FCF7
:10486000009A0B044243210C050019438A4207D9E0
:10487000C919013D8F4203D88A4201D9851EC91941
:10488000881A5946FBF7E2FC009A240442430904C3
:10489000240C03000C43A24204D9E419013BA742B3
:1048A00000D8F2E00399A01A2D040C0C09041D4352
:1048B000090C2A0C2B04A9460D001B0C5D43079123
:1048C00063435143069462435B182C0CE3189942EE
:1048D00002D9802149025218190C2D041B042D0CF9
:1048E0008A185D19904200D284E000D17FE04346EF
:1048F0005D1BAB429B415446801AC018AD4BE41877
:104900000494874200D1FBE05946FBF79FFC02006C
:10491000009B05905A430B04290C19438A4209D97C
:10492000431EC91905938F4204D88A4202D9831EB7
:104930000593C919881A5946FBF788FC0A0494465E
:1049400003002A0465460099120C59432A439142F8
:1049500007D9D219013B974203D8914201D9831E4E
:10496000D219521A05990798090405000B43190C2E
:104970008C461904090C4D4388466146AB46654692
:10498000484306994D43AC46454669435D46091880
:104990002D0C4919884202D98020400284445D468A
:1049A000080C2D0409042D0C60444D19824211D3CA
:1049B0000DD001221343804A92456DDB1A1D9A42A5
:1049C0009B41D2085B42CC469C44E14671E6002DF7
:1049D00000D193E0591EBA188C46BA4200D285E045
:1049E000824200D2C4E000D1D1E00B00E1E7A8454B
:1049F00000D37CE74B46013B04934346039C1B19C1
:104A00009846A3429B41FB1AC018874238D2824283
:104A10007DD87AD0049B994669E7434500D90BE7D6
:104A20004146039AD40750084A081443CA079046DF
:104A300009E7FBF773FD02000300153020321C2844
:104A400000DC92E60099083B9940002303919846C8
:104A500099E6FBF763FD15239C46844402006346F8
:104A600020321C2B00DC5DE6310008388140002339
:104A7000894667E600212E00002288464F4BEEE56E
:104A80008742C7D14445C5D8C1E7A24200D809E74B
:104A9000831EE41906E72E002200373200DADAE539
:104AA00022001E323FDB4D46012250464449121B74
:104AB00040181C00290083408140D440581E834187
:104AC000D54021430B432A00590708D00F21194034
:104AD000042904D0191D99429B41EA1A0B001102C6
:104AE00063D50021012300228846B8E50B008242ED
:104AF00000D05EE7039A954200D05AE73500CBE537
:104B0000002C41DD002201235DE7454582D94B465B
:104B1000023B9946434603995B1898468B429B415A
:104B2000FB1AC018E3E648461F2201005242121B3E
:104B3000D1401F3404D05246224C121990400343F6
:104B40005A1E934107200B430100002219401842CE
:104B500009D00F21194004291ED0181D98428941FF
:104B6000030049424907DB080B439846002376E5DA
:104B70000399023B49008C4603998C458941791A77
:104B8000521861460391B2E701235B4284E703991F
:104B9000A942EDD36346ADE70021E4E71A1D9A422E
:104BA0009B412E005B42D2080DE751075202120BC7
:104BB000D9E7C046FF03000002FCFFFFFF0700002B
:104BC0001E0400003E040000F0B54546DE46574690
:104BD0004E460C03E0B51F00230B4C009846630DB6
:104BE0009C463C03CB0F1C4D16009B4683B0220B0A
:104BF000FB0F7C00640D0193AC450FD0AC420BD091
:104C000079400125490017D0280003B0F0BCBB460D
:104C1000B246A946A046F0BD0125F5E70125644549
:104C2000F2D14346134333430343EDD15B46019A2C
:104C30009D1A6B1E9D41E7E78642E5D1019A934597
:104C400007D08C45E0D142463243531E9A411500AD
:104C5000DAE70025D8E7C046FF070000F0B5574661
:104C60004E464546DE46E0B50D000903090BDF0F51
:104C70008C46B946E90F2D4F0400834688466E00E6
:104C8000190358009246760D090B400DBE421CD008
:104C9000B8420DD0002E2AD166463443002823D1D5
:104CA0000A4334D0002C3ED14B465800013815E061
:104CB000114335D1002E02D163462343F4D0C845B9
:104CC00008D143465800013808E06746274327D1FA
:104CD000B0421FD0434601205B421843F0BCBB46A4
:104CE000B246A946A046F0BD002CDDD0E7E700287B
:104CF000F0D0C845EED18642ECDCE2DB8C45E9D849
:104D0000DFD1DA45E6D30020DA45E7D9D9E7002C30
:104D1000E4D0DFE7114303D1C845DBD10800DDE76C
:104D200002204042DAE7C845E8D0D3E7FF07000099
:104D3000F0B557464E464546DE46E0B50D00090340
:104D4000090BDF0F8C46B946E90F2D4F040083464F
:104D500088466E00190358009246760D090B400DE7
:104D6000BE421DD0B8420DD0002E27D16646344336
:104D7000002831D10A4332D0002C3DD14B46580097
:104D8000013815E0114312D1002E02D163462343AE
:104D9000F4D0C8451CD0434601205B42184307E0CD
:104DA0006746274303D1B042F5D111431AD0022000
:104DB000F0BCBB46B246A946A046F0BD0028EAD0EA
:104DC000C845E8D18642E6DC02DB8C45E3D80DD04D
:104DD000434658000138EBE7002CCFD0D9E7002C30
:104DE000E6D0D8E70800C845E2D0D4E7DA45D2D308
:104DF0000020DA45DCD9EBE7C845E6D0CBE7C04672
:104E0000FF070000F0B557464E464546DE46E0B582
:104E10000D0004001F000B03190B160087B06B0078
:104E2000EA0F89469246009401955B0D00D1B7E1E7
:104E3000D54A934200D11DE1C900420F0A438021A7
:104E400009041143C2009046D04A89469B189B46EC
:104E50000023002502933C037A00FB0F3000240B53
:104E6000520D009300D170E1C74B9A4200D155E139
:104E7000DC46C64BD2189444E3460A2D00DD0AE115
:104E8000730FE4001C4380231B042343F0005246AD
:104E9000009900264A409246022D11DD0122AA40C7
:104EA000A6211400C9000C400A4200D0F3E0902172
:104EB00089000A4200D0C4E18821114200D0E5E017
:104EC00041460C0C0904020C090C0F0015000004EB
:104ED000000C654347430395B8462F000D000600BC
:104EE0005543AC46454666432D0CB4446544AE423A
:104EF00004D93E0080277F02F619039647463F04F7
:104F00003F0C2E0C2D04ED1904951D0C1B041B0CDD
:104F100000934B431F00009B694363439C463B0C3B
:104F20006144C9186C438C4502D980235B02E418A4
:104F30003F040B0C3F0C0904C919E41873180593BE
:104F40004B461E04360C1F0C330043439C463B006B
:104F5000534302936346784372431B0C1218D218D2
:104F6000904204D9802302985B02C0180290029BF1
:104F7000100C1B180293634618043300000C120433
:104F8000121800986E4343439C46030060467B43DF
:104F90006F43F618050CAD19AB4202D980235B02B2
:104FA000FF18039B059E2804F61863468E4289412C
:104FB0001B041B0CC3181B19494258188446B61809
:104FC000A3429B418C4589419642924102984942B5
:104FD000604400905B4252420B43009C029980184F
:104FE000904292418C4289412D0C494252420A43DF
:104FF0005B199B18DB19C20D5B0204991A43914699
:1050000072020A43511E8A41F60D164331004202D4
:10501000114308008846DB0156D45A465C4BD2182F
:10502000002A00DC13E14B0716D00F215B4601403C
:10503000042911D04146081D40458941CC464942CA
:105040008C44E14680464846C10105D5514A10408E
:1050500080228146D2009A184F4B9A4200DD25E10A
:10506000494643464C07DB081C4352054B021B0BC9
:10507000520D1BE00A0000990A43904600D0DAE086
:105080009B460223914608250293E4E6009A99463E
:10509000924680460296029B022B00D106E1032B2A
:1050A00033D0012B1AD100220023002412051A4309
:1050B0005346DB071A432000110007B0F0BCBB4683
:1050C000B246A946A046F0BD01224B080A40494617
:1050D0001343CA07134398464B08994680215A4602
:1050E000C900531C5218002A00DCB1E040464107B9
:1050F000A9D00F21014004299CD1A4E70F2D00D194
:10510000F7E0009BA1469A46804680234A461B034F
:1051100013431B0344461C4A1B0BC7E75946330085
:10512000194E234389198B46002B72D10221294342
:105130000A29B0DC5046009C60408246002D00D118
:1051400007E10D0000200226A8E62300334351D0DA
:10515000002C00D1BEE02000FBF7E0F902000B3884
:105160001D231B1A3000D8401100030030000839FD
:105170008C408840234359468A1A0849521893465E
:105180000A2D00DC83E686E7FF07000001FCFFFF35
:10519000FF030000FFFFFFFEFE0700000DFCFFFF06
:1051A0000A000B0000990A4390461CD0002B00D146
:1051B00080E01800FBF7B2F902000B381D231B1A20
:1051C000009811004D46D84008398D4003002B430C
:1051D0009946009B8B409846624B00259B1A9B4644
:1051E0000023029337E6002399469B4601330425AA
:1051F000029330E6012215430A2D00DD4BE75246AB
:1052000000994A409246022D00DC4CE7002001261E
:1052100044E603231D430A2D00DD6FE75346009A41
:10522000882153400122AA409A46032623001142B6
:1052300000D145E62AE79B46032380460C250293CE
:1052400009E600239A468023474A1B032EE75B4664
:105250001100373100DA26E711001E3158DA4846CE
:105260001F2104004942891ACC4021001F3205D079
:105270003E4A9B1898404246024390464246531E7F
:105280009A410A4307210C0000231440114209D01F
:105290000831114004295FD0111D9142A4410A0038
:1052A00064426407D20814430022FFE6002300246E
:1052B0002D4AFBE6FBF732F90200030015302032DD
:1052C0001C2800DC7AE7002188460099083B9940B9
:1052D000894681E7FBF722F90200030015302032EE
:1052E0001C2800DC3CE73100083B994000200B0003
:1052F00041E780234A461B031A4200D105E71C42BE
:1053000000D002E7009A234392460400164ACDE6F5
:105310000121891A164A48469B1842469840CA40BD
:10532000104342469A40531E9A414B460243CB409B
:10533000510708D00F211140042904D0111D9142BA
:1053400092419B1A0A00190208D501220023002469
:10535000ACE600230024A9E60024A3E75C075B0277
:105360001B0B9FE70DFCFFFFFF0700003E04000042
:105370001E040000F0B557464E464546DE46E0B5F1
:105380000C0383B0009201934D00CB0F610A440FD0
:105390009846009A019B0C431903019BC0005F00D3
:1053A0007B0D9C46019B8346DE0F4B0A00996D0DD9
:1053B000490F1943009BDA00BF4B924699469C4522
:1053C0006BD0012347465E406346EB1AB74216D0C6
:1053D000002B00DC91E26646002E00D07AE00E0041
:1053E000164300D132E15E1E012B00D199E24B45FC
:1053F00000D1E5E1382E00DD23E2330036E1002B59
:1054000000DCE1E26646002E00D0F0E00E0016431C
:1054100000D11BE15E1E012B00D152E24B4500D1B1
:10542000CEE1382E00DC20E3802212041D00471C50
:10543000144214D01400A04B01359D421CD0012110
:105440009E4A7B0814403940E0070B431843640828
:105450005B0709D00F2307000340042B04D0381D3D
:10546000B842BF417F42E419230200D421E1924AAD
:105470000135954200D0DFE02B0000240027424692
:105480001B052343D60733433800190003B0F0BC93
:10549000BB46B246A946A046F0BD894BEF180B00AB
:1054A00013434DD0B0454FD0002F6DD0002D00D10B
:1054B0008BE1B0464807D2081043CD0807002F43C0
:1054C00000D1CDE0802424032C43240307007A4B31
:1054D000240BD4E74D4500D131E2382B00DCC2E08B
:1054E000471EB842804124182302B8D50127754CC5
:1054F0007F422000FBF712F80300083B2021380010
:10550000CA1AD0409C4002009F402243AB4200DABE
:105510004FE1581B0130091A3C008F40C4407B1EEC
:105520009F4113008B4027431F43C2403B001400A0
:10553000134300D18EE17B0700D0F6E038004AE04B
:1055400001235E40B045AFD1002F00D1F9E0002D1E
:1055500000D071E163462500054300D1A6E25D1E3F
:10556000012B00D1BBE2544FBB4200D164E1382D86
:1055700000DCFCE2571C802212041D0014001142C2
:1055800000D058E70C006AE74F4F6B1C3B4200D03D
:10559000FFE00F00230017430343002D00D080E1FC
:1055A000002B00D1D7E1002F00D1DBE1831A9C460C
:1055B0006045AD41631A5B191D0200D4B9E2101AAF
:1055C00082429241012307000C1BA41833409846E5
:1055D000274300D1B8E101232100824622022DD4C5
:1055E00053464F07DB081F43CD080023CCE04D4551
:1055F00000D1E5E0382B00DD16E180273F04394378
:105600001F2B00DDB7E120260F00F61AB740B24687
:105610003E001700DF403E4337005646B240D940B7
:10562000561EB24164183A43171887428041241A23
:10563000230200D5FFE633E06B055B0D1F4AC0086F
:105640001440670764020743240B18E7C008620789
:105650001043194AE508934200D12FE7070093E071
:105660000024154B0BE780273F0439431F2B00DD37
:10567000C4E020260F00F61AB740B2463E001700DD
:10568000DF403E4337005646B240D940561EB24135
:10569000641A3A43871AB84280412418230217D467
:1056A0007B0700D165E20F233B40042B00D0D6E6F8
:1056B00038002B00C008CAE7FF070000FFFF7FFF8C
:1056C00001F8FFFFFFFF7F00FE070000B046012545
:1056D0006402640A002C00D00BE73800FAF71EFFC2
:1056E000030018331F2B00DC08E73A00083882401B
:1056F0009D4200DD92E05B1B581C1F2800DC14E279
:1057000017001F3BDF40202805D040231B1A9A407A
:10571000531E9A411743002F00D115E107231900AA
:10572000BA4639403B4200D15AE70F233B40042B95
:1057300000D01EE138000025033B220200D57DE7A2
:10574000B7E7CB4F6B1C3B4200D086E023000343FE
:10575000002D00D05CE10F001743002B00D1CCE1FD
:10576000002F00D1FEE08218824280416418241A82
:10577000230200D5EAE11700274300D1E4E000232B
:10578000D20867071743E5082C035B05240B5B0D64
:1057900075E6831A9C466045BF41631A7F42DB1B56
:1057A0001F0275D467461F4300D1D0E01C00674636
:1057B00090E7B04CED1A14407B0700D073E777E711
:1057C0006307C0081843E50878E6634625000543EB
:1057D00073D05D1E012B00D138E1A74FBB4200D131
:1057E00067E6382D00DC8DE1571EBA4292418C18D5
:1057F000B0461D00220200D578E630E61F000E00FC
:10580000203FFE40202B04D04027FB1A99400A433A
:1058100092465246531E9A4132433BE7EB1A954D4E
:1058200015406F07ED08AFE780231B04471C1C429F
:1058300000D114E61C00FEE54807D2081043CD084D
:105840003CE6471EB842804124181D00220200D5C4
:105850004CE604E60027002411E6874DAB4200D158
:105860000BE68218824280416118081AC707520865
:1058700017434408520700D47EE10F221D003A402E
:10588000042A00D0EBE5FF086407274305097BE7FE
:105890000123171ABA4292410C1B33409846A418B0
:1058A00018E7002B00D004E1002F00D057E10023BF
:1058B000802498462403704BE1E5B0460C00D008E4
:1058C000C5E687188742804165182D1A2B0200D43F
:1058D0000DE1684B7A081D40EB0713436F08520730
:1058E00000D42DE10F221A40042A00D128E1181D0E
:1058F0009842A44102253C1BDBE6002B00D143E685
:1059000063465B1B002D00D160E7382B43DD571E3B
:10591000BA4292418C18B0466546230200D5E5E5AF
:105920009DE5871AB8428041641A2418230200D5E5
:10593000CDE66307FF081F43E508012324E7C008FD
:1059400063071843E508B9E50023002497E5002321
:105950000024984693E5002FF9D001333340984650
:105960000C0093465B466707DB081F43E5080023EE
:105970000AE7002573E51F000E00203FFE40202BA4
:1059800004D04027FB1A99400A4392465246531EC0
:105990009A41324348E68025B0462D042C431F2B04
:1059A00026DC20272500FF1A0600B840BD40DE4057
:1059B000471EB841DC4035432843091B171ABA4239
:1059C000924165468C1869E6002B00D1B9E6634622
:1059D0005B1B002D00D1BEE5382B4FDD80231B045F
:1059E00065461C00571C194200D024E50C0036E522
:1059F0001D002700203DEF40202B04D04025EB1A4E
:105A00009C40204383465846431E98413843D5E77F
:105A1000002B00D110E76307C00818430B00E5080E
:105A2000134300D14AE580231B031D4206D0CC0856
:105A30001C4203D12500D00849070843430FC0008A
:105A4000ED00C0085B071843ED0837E5171ABA42A6
:105A500092410C1BA418230200D537E66307FF0808
:105A60001F43B0460123E5088EE63300C8E5C04673
:105A7000FE070000FFFF7FFFFF07000080252D04C9
:105A80002C431F2B41DC20272500FF1A0600B840BD
:105A9000BD40DE40471EB841DC403543284309196C
:105AA00087189742924165468C1AC1E50C00D008D0
:105AB000CDE5C00863071843E508002F00D1FDE4D9
:105AC00080231B031D42B9D0CC081C42B6D1012350
:105AD000D00849073340984625000843AEE78718A9
